{
  "contractName": "ValidatorContract",
  "abi": [
    {
      "constant": true,
      "inputs": [
        {
          "name": "",
          "type": "address"
        }
      ],
      "name": "userLastSeenMap",
      "outputs": [
        {
          "name": "",
          "type": "string"
        }
      ],
      "payable": false,
      "stateMutability": "view",
      "type": "function"
    },
    {
      "constant": true,
      "inputs": [
        {
          "name": "",
          "type": "uint256"
        }
      ],
      "name": "uploadObjectIdToData",
      "outputs": [
        {
          "name": "customerAddress",
          "type": "address"
        },
        {
          "name": "fileHash",
          "type": "string"
        },
        {
          "name": "alias1",
          "type": "string"
        },
        {
          "name": "alias2",
          "type": "string"
        },
        {
          "name": "policyId",
          "type": "string"
        },
        {
          "name": "capsule",
          "type": "string"
        },
        {
          "name": "signedPublicKey",
          "type": "string"
        },
        {
          "name": "alicePubKey",
          "type": "string"
        }
      ],
      "payable": false,
      "stateMutability": "view",
      "type": "function"
    },
    {
      "constant": true,
      "inputs": [
        {
          "name": "",
          "type": "address"
        },
        {
          "name": "",
          "type": "uint256"
        }
      ],
      "name": "userAddressToUploadObjectIds",
      "outputs": [
        {
          "name": "",
          "type": "uint256"
        }
      ],
      "payable": false,
      "stateMutability": "view",
      "type": "function"
    },
    {
      "constant": false,
      "inputs": [
        {
          "name": "_from",
          "type": "address"
        },
        {
          "name": "fileHash",
          "type": "string"
        },
        {
          "name": "alias1",
          "type": "string"
        },
        {
          "name": "alias2",
          "type": "string"
        },
        {
          "name": "policyId",
          "type": "string"
        },
        {
          "name": "capsule",
          "type": "string"
        },
        {
          "name": "signedPublicKey",
          "type": "string"
        },
        {
          "name": "alicePubKey",
          "type": "string"
        }
      ],
      "name": "addDocument",
      "outputs": [
        {
          "name": "",
          "type": "uint256"
        }
      ],
      "payable": false,
      "stateMutability": "nonpayable",
      "type": "function"
    },
    {
      "constant": true,
      "inputs": [
        {
          "name": "_address",
          "type": "address"
        }
      ],
      "name": "getDocumentIds",
      "outputs": [
        {
          "name": "",
          "type": "uint256[]"
        }
      ],
      "payable": false,
      "stateMutability": "view",
      "type": "function"
    },
    {
      "constant": true,
      "inputs": [
        {
          "name": "id",
          "type": "uint256"
        }
      ],
      "name": "getDocument",
      "outputs": [
        {
          "name": "",
          "type": "string"
        },
        {
          "name": "",
          "type": "string"
        },
        {
          "name": "",
          "type": "string"
        },
        {
          "name": "",
          "type": "string"
        },
        {
          "name": "",
          "type": "string"
        },
        {
          "name": "",
          "type": "string"
        },
        {
          "name": "",
          "type": "string"
        }
      ],
      "payable": false,
      "stateMutability": "view",
      "type": "function"
    },
    {
      "constant": false,
      "inputs": [
        {
          "name": "_address",
          "type": "address"
        },
        {
          "name": "value",
          "type": "string"
        }
      ],
      "name": "setLastSeen",
      "outputs": [],
      "payable": false,
      "stateMutability": "nonpayable",
      "type": "function"
    },
    {
      "constant": true,
      "inputs": [
        {
          "name": "_address",
          "type": "address"
        }
      ],
      "name": "getLastSeen",
      "outputs": [
        {
          "name": "",
          "type": "string"
        }
      ],
      "payable": false,
      "stateMutability": "view",
      "type": "function"
    },
    {
      "constant": true,
      "inputs": [
        {
          "name": "policyId",
          "type": "string"
        }
      ],
      "name": "getCustomerAddressByPolicyId",
      "outputs": [
        {
          "name": "",
          "type": "address"
        }
      ],
      "payable": false,
      "stateMutability": "view",
      "type": "function"
    },
    {
      "constant": true,
      "inputs": [
        {
          "name": "policyId",
          "type": "string"
        }
      ],
      "name": "getAliasesByPolicyId",
      "outputs": [
        {
          "name": "",
          "type": "string"
        },
        {
          "name": "",
          "type": "string"
        }
      ],
      "payable": false,
      "stateMutability": "view",
      "type": "function"
    },
    {
      "constant": true,
      "inputs": [],
      "name": "getCurrentId",
      "outputs": [
        {
          "name": "",
          "type": "uint256"
        }
      ],
      "payable": false,
      "stateMutability": "view",
      "type": "function"
    }
  ],
  "bytecode": "0x6080604052600160005534801561001557600080fd5b506121b0806100256000396000f3006080604052600436106100af576000357c0100000000000000000000000000000000000000000000000000000000900463ffffffff1680630b808dc9146100b45780633f9b250a1461015d5780634790bbed1461048b5780635157db2e1461054757806361b94576146105d05780636c1438621461068c5780636d9b4a46146106b7578063759eb0bd1461074f5780638ad67a0214610990578063a9b4a61614610ade578063b75a5c6014610e3f575b600080fd5b3480156100c057600080fd5b5061011b600480360381019080803590602001908201803590602001908080601f0160208091040260200160405190810160405280939291908181526020018383808284378201915050505050509192919290505050610ea0565b604051808273ffffffffffffffffffffffffffffffffffffffff1673ffffffffffffffffffffffffffffffffffffffff16815260200191505060405180910390f35b34801561016957600080fd5b5061018860048036038101908080359060200190929190505050610ff5565b604051808060200180602001806020018060200180602001806020018060200188810388528f818151815260200191508051906020019080838360005b838110156101e05780820151818401526020810190506101c5565b50505050905090810190601f16801561020d5780820380516001836020036101000a031916815260200191505b5088810387528e818151815260200191508051906020019080838360005b8381101561024657808201518184015260208101905061022b565b50505050905090810190601f1680156102735780820380516001836020036101000a031916815260200191505b5088810386528d818151815260200191508051906020019080838360005b838110156102ac578082015181840152602081019050610291565b50505050905090810190601f1680156102d95780820380516001836020036101000a031916815260200191505b5088810385528c818151815260200191508051906020019080838360005b838110156103125780820151818401526020810190506102f7565b50505050905090810190601f16801561033f5780820380516001836020036101000a031916815260200191505b5088810384528b818151815260200191508051906020019080838360005b8381101561037857808201518184015260208101905061035d565b50505050905090810190601f1680156103a55780820380516001836020036101000a031916815260200191505b5088810383528a818151815260200191508051906020019080838360005b838110156103de5780820151818401526020810190506103c3565b50505050905090810190601f16801561040b5780820380516001836020036101000a031916815260200191505b50888103825289818151815260200191508051906020019080838360005b83811015610444578082015181840152602081019050610429565b50505050905090810190601f1680156104715780820380516001836020036101000a031916815260200191505b509e50505050505050505050505050505060405180910390f35b34801561049757600080fd5b506104cc600480360381019080803573ffffffffffffffffffffffffffffffffffffffff1690602001909291905050506114f7565b6040518080602001828103825283818151815260200191508051906020019080838360005b8381101561050c5780820151818401526020810190506104f1565b50505050905090810190601f1680156105395780820380516001836020036101000a031916815260200191505b509250505060405180910390f35b34801561055357600080fd5b506105ce600480360381019080803573ffffffffffffffffffffffffffffffffffffffff169060200190929190803590602001908201803590602001908080601f01602080910402602001604051908101604052809392919081815260200183838082843782019150505050505091929192905050506115a7565b005b3480156105dc57600080fd5b50610611600480360381019080803573ffffffffffffffffffffffffffffffffffffffff1690602001909291905050506115ff565b6040518080602001828103825283818151815260200191508051906020019080838360005b83811015610651578082015181840152602081019050610636565b50505050905090810190601f16801561067e5780820380516001836020036101000a031916815260200191505b509250505060405180910390f35b34801561069857600080fd5b506106a16116e0565b6040518082815260200191505060405180910390f35b3480156106c357600080fd5b506106f8600480360381019080803573ffffffffffffffffffffffffffffffffffffffff1690602001909291905050506116e9565b6040518080602001828103825283818151815260200191508051906020019060200280838360005b8381101561073b578082015181840152602081019050610720565b505050509050019250505060405180910390f35b34801561075b57600080fd5b5061097a600480360381019080803573ffffffffffffffffffffffffffffffffffffffff169060200190929190803590602001908201803590602001908080601f0160208091040260200160405190810160405280939291908181526020018383808284378201915050505050509192919290803590602001908201803590602001908080601f0160208091040260200160405190810160405280939291908181526020018383808284378201915050505050509192919290803590602001908201803590602001908080601f0160208091040260200160405190810160405280939291908181526020018383808284378201915050505050509192919290803590602001908201803590602001908080601f0160208091040260200160405190810160405280939291908181526020018383808284378201915050505050509192919290803590602001908201803590602001908080601f0160208091040260200160405190810160405280939291908181526020018383808284378201915050505050509192919290803590602001908201803590602001908080601f0160208091040260200160405190810160405280939291908181526020018383808284378201915050505050509192919290803590602001908201803590602001908080601f0160208091040260200160405190810160405280939291908181526020018383808284378201915050505050509192919290505050611780565b6040518082815260200191505060405180910390f35b34801561099c57600080fd5b506109f7600480360381019080803590602001908201803590602001908080601f0160208091040260200160405190810160405280939291908181526020018383808284378201915050505050509192919290505050611994565b604051808060200180602001838103835285818151815260200191508051906020019080838360005b83811015610a3b578082015181840152602081019050610a20565b50505050905090810190601f168015610a685780820380516001836020036101000a031916815260200191505b50838103825284818151815260200191508051906020019080838360005b83811015610aa1578082015181840152602081019050610a86565b50505050905090810190601f168015610ace5780820380516001836020036101000a031916815260200191505b5094505050505060405180910390f35b348015610aea57600080fd5b50610b0960048036038101908080359060200190929190505050611c1f565b604051808973ffffffffffffffffffffffffffffffffffffffff1673ffffffffffffffffffffffffffffffffffffffff1681526020018060200180602001806020018060200180602001806020018060200188810388528f818151815260200191508051906020019080838360005b83811015610b93578082015181840152602081019050610b78565b50505050905090810190601f168015610bc05780820380516001836020036101000a031916815260200191505b5088810387528e818151815260200191508051906020019080838360005b83811015610bf9578082015181840152602081019050610bde565b50505050905090810190601f168015610c265780820380516001836020036101000a031916815260200191505b5088810386528d818151815260200191508051906020019080838360005b83811015610c5f578082015181840152602081019050610c44565b50505050905090810190601f168015610c8c5780820380516001836020036101000a031916815260200191505b5088810385528c818151815260200191508051906020019080838360005b83811015610cc5578082015181840152602081019050610caa565b50505050905090810190601f168015610cf25780820380516001836020036101000a031916815260200191505b5088810384528b818151815260200191508051906020019080838360005b83811015610d2b578082015181840152602081019050610d10565b50505050905090810190601f168015610d585780820380516001836020036101000a031916815260200191505b5088810383528a818151815260200191508051906020019080838360005b83811015610d91578082015181840152602081019050610d76565b50505050905090810190601f168015610dbe5780820380516001836020036101000a031916815260200191505b50888103825289818151815260200191508051906020019080838360005b83811015610df7578082015181840152602081019050610ddc565b50505050905090810190601f168015610e245780820380516001836020036101000a031916815260200191505b509f5050505050505050505050505050505060405180910390f35b348015610e4b57600080fd5b50610e8a600480360381019080803573ffffffffffffffffffffffffffffffffffffffff169060200190929190803590602001909291905050506120af565b6040518082815260200191505060405180910390f35b6000806000600190505b60005481111515610feb57836040518082805190602001908083835b602083101515610eeb5780518252602082019150602081019050602083039250610ec6565b6001836020036101000a038019825116818451168082178552505050505050905001915050604051809103902060001916600360008381526020019081526020016000206004016040518082805460018160011615610100020316600290048015610f8d5780601f10610f6b576101008083540402835291820191610f8d565b820191906000526020600020905b815481529060010190602001808311610f79575b50509150506040518091039020600019161415610fde576003600082815260200190815260200160002060000160009054906101000a900473ffffffffffffffffffffffffffffffffffffffff1691505b8080600101915050610eaa565b8192505050919050565b606080606080606080606060036000898152602001908152602001600020600101600360008a8152602001908152602001600020600201600360008b8152602001908152602001600020600301600360008c8152602001908152602001600020600401600360008d8152602001908152602001600020600501600360008e8152602001908152602001600020600601600360008f8152602001908152602001600020600701868054600181600116156101000203166002900480601f01602080910402602001604051908101604052809291908181526020018280546001816001161561010002031660029004801561112f5780601f106111045761010080835404028352916020019161112f565b820191906000526020600020905b81548152906001019060200180831161111257829003601f168201915b50505050509650858054600181600116156101000203166002900480601f0160208091040260200160405190810160405280929190818152602001828054600181600116156101000203166002900480156111cb5780601f106111a0576101008083540402835291602001916111cb565b820191906000526020600020905b8154815290600101906020018083116111ae57829003601f168201915b50505050509550848054600181600116156101000203166002900480601f0160208091040260200160405190810160405280929190818152602001828054600181600116156101000203166002900480156112675780601f1061123c57610100808354040283529160200191611267565b820191906000526020600020905b81548152906001019060200180831161124a57829003601f168201915b50505050509450838054600181600116156101000203166002900480601f0160208091040260200160405190810160405280929190818152602001828054600181600116156101000203166002900480156113035780601f106112d857610100808354040283529160200191611303565b820191906000526020600020905b8154815290600101906020018083116112e657829003601f168201915b50505050509350828054600181600116156101000203166002900480601f01602080910402602001604051908101604052809291908181526020018280546001816001161561010002031660029004801561139f5780601f106113745761010080835404028352916020019161139f565b820191906000526020600020905b81548152906001019060200180831161138257829003601f168201915b50505050509250818054600181600116156101000203166002900480601f01602080910402602001604051908101604052809291908181526020018280546001816001161561010002031660029004801561143b5780601f106114105761010080835404028352916020019161143b565b820191906000526020600020905b81548152906001019060200180831161141e57829003601f168201915b50505050509150808054600181600116156101000203166002900480601f0160208091040260200160405190810160405280929190818152602001828054600181600116156101000203166002900480156114d75780601f106114ac576101008083540402835291602001916114d7565b820191906000526020600020905b8154815290600101906020018083116114ba57829003601f168201915b505050505090509650965096509650965096509650919395979092949650565b60026020528060005260406000206000915090508054600181600116156101000203166002900480601f01602080910402602001604051908101604052809291908181526020018280546001816001161561010002031660029004801561159f5780601f106115745761010080835404028352916020019161159f565b820191906000526020600020905b81548152906001019060200180831161158257829003601f168201915b505050505081565b80600260008473ffffffffffffffffffffffffffffffffffffffff1673ffffffffffffffffffffffffffffffffffffffff16815260200190815260200160002090805190602001906115fa9291906120df565b505050565b6060600260008373ffffffffffffffffffffffffffffffffffffffff1673ffffffffffffffffffffffffffffffffffffffff1681526020019081526020016000208054600181600116156101000203166002900480601f0160208091040260200160405190810160405280929190818152602001828054600181600116156101000203166002900480156116d45780601f106116a9576101008083540402835291602001916116d4565b820191906000526020600020905b8154815290600101906020018083116116b757829003601f168201915b50505050509050919050565b60008054905090565b6060600160008373ffffffffffffffffffffffffffffffffffffffff1673ffffffffffffffffffffffffffffffffffffffff16815260200190815260200160002080548060200260200160405190810160405280929190818152602001828054801561177457602002820191906000526020600020905b815481526020019060010190808311611760575b50505050509050919050565b600088600360008054815260200190815260200160002060000160006101000a81548173ffffffffffffffffffffffffffffffffffffffff021916908373ffffffffffffffffffffffffffffffffffffffff16021790555087600360008054815260200190815260200160002060010190805190602001906118039291906120df565b50866003600080548152602001908152602001600020600201908051906020019061182f9291906120df565b50856003600080548152602001908152602001600020600301908051906020019061185b9291906120df565b5084600360008054815260200190815260200160002060040190805190602001906118879291906120df565b5083600360008054815260200190815260200160002060050190805190602001906118b39291906120df565b5082600360008054815260200190815260200160002060060190805190602001906118df9291906120df565b50816003600080548152602001908152602001600020600701908051906020019061190b9291906120df565b50600160008a73ffffffffffffffffffffffffffffffffffffffff1673ffffffffffffffffffffffffffffffffffffffff1681526020019081526020016000206000549080600181540180825580915050906001820390600052602060002001600090919290919091505550600160005401600081905550600054905098975050505050505050565b6060806000806000600190505b60005481111515611ad957856040518082805190602001908083835b6020831015156119e257805182526020820191506020810190506020830392506119bd565b6001836020036101000a038019825116818451168082178552505050505050905001915050604051809103902060001916600360008381526020019081526020016000206004016040518082805460018160011615610100020316600290048015611a845780601f10611a62576101008083540402835291820191611a84565b820191906000526020600020905b815481529060010190602001808311611a70575b50509150506040518091039020600019161415611acc576003600082815260200190815260200160002060020192506003600082815260200190815260200160002060030191505b80806001019150506119a1565b8282818054600181600116156101000203166002900480601f016020809104026020016040519081016040528092919081815260200182805460018160011615610100020316600290048015611b705780601f10611b4557610100808354040283529160200191611b70565b820191906000526020600020905b815481529060010190602001808311611b5357829003601f168201915b50505050509150808054600181600116156101000203166002900480601f016020809104026020016040519081016040528092919081815260200182805460018160011615610100020316600290048015611c0c5780601f10611be157610100808354040283529160200191611c0c565b820191906000526020600020905b815481529060010190602001808311611bef57829003601f168201915b5050505050905094509450505050915091565b60036020528060005260406000206000915090508060000160009054906101000a900473ffffffffffffffffffffffffffffffffffffffff1690806001018054600181600116156101000203166002900480601f016020809104026020016040519081016040528092919081815260200182805460018160011615610100020316600290048015611cf15780601f10611cc657610100808354040283529160200191611cf1565b820191906000526020600020905b815481529060010190602001808311611cd457829003601f168201915b505050505090806002018054600181600116156101000203166002900480601f016020809104026020016040519081016040528092919081815260200182805460018160011615610100020316600290048015611d8f5780601f10611d6457610100808354040283529160200191611d8f565b820191906000526020600020905b815481529060010190602001808311611d7257829003601f168201915b505050505090806003018054600181600116156101000203166002900480601f016020809104026020016040519081016040528092919081815260200182805460018160011615610100020316600290048015611e2d5780601f10611e0257610100808354040283529160200191611e2d565b820191906000526020600020905b815481529060010190602001808311611e1057829003601f168201915b505050505090806004018054600181600116156101000203166002900480601f016020809104026020016040519081016040528092919081815260200182805460018160011615610100020316600290048015611ecb5780601f10611ea057610100808354040283529160200191611ecb565b820191906000526020600020905b815481529060010190602001808311611eae57829003601f168201915b505050505090806005018054600181600116156101000203166002900480601f016020809104026020016040519081016040528092919081815260200182805460018160011615610100020316600290048015611f695780601f10611f3e57610100808354040283529160200191611f69565b820191906000526020600020905b815481529060010190602001808311611f4c57829003601f168201915b505050505090806006018054600181600116156101000203166002900480601f0160208091040260200160405190810160405280929190818152602001828054600181600116156101000203166002900480156120075780601f10611fdc57610100808354040283529160200191612007565b820191906000526020600020905b815481529060010190602001808311611fea57829003601f168201915b505050505090806007018054600181600116156101000203166002900480601f0160208091040260200160405190810160405280929190818152602001828054600181600116156101000203166002900480156120a55780601f1061207a576101008083540402835291602001916120a5565b820191906000526020600020905b81548152906001019060200180831161208857829003601f168201915b5050505050905088565b6001602052816000526040600020818154811015156120ca57fe5b90600052602060002001600091509150505481565b828054600181600116156101000203166002900490600052602060002090601f016020900481019282601f1061212057805160ff191683800117855561214e565b8280016001018555821561214e579182015b8281111561214d578251825591602001919060010190612132565b5b50905061215b919061215f565b5090565b61218191905b8082111561217d576000816000905550600101612165565b5090565b905600a165627a7a72305820706e866da1679ee61886d469f6737642e016fa1423ae6ffdae73a25e01c7c6840029",
  "source": "pragma solidity ^0.4.17;\n\ncontract ValidatorContract {\n\n\t// current item id increments on every upload object\n\tuint currentId = 1;\n\tstruct UploadObject {\n\t\taddress customerAddress;\n\n\t\tstring fileHash;\n\t\tstring alias1;\n\t\tstring alias2;\n\t\tstring policyId;\n\t\tstring capsule;\n\t\tstring signedPublicKey;\n\t\tstring alicePubKey;\n\t}\n\n\t//user will have multiple upload items\n\tmapping (address => uint[]) public userAddressToUploadObjectIds;\n\tmapping (address => string) public userLastSeenMap;\n\n\t// each item will have a user\n\tmapping (uint => UploadObject) public uploadObjectIdToData;\n\n\t// add new entry\n\tfunction addDocument(address _from, string fileHash, string alias1, string alias2, string policyId, string capsule, string signedPublicKey, string alicePubKey) public returns(uint) {\n\t\tuploadObjectIdToData[currentId].customerAddress = _from;\n\t\tuploadObjectIdToData[currentId].fileHash = fileHash;\n\t\tuploadObjectIdToData[currentId].alias1 = alias1;\n\t\tuploadObjectIdToData[currentId].alias2 = alias2;\n\t\tuploadObjectIdToData[currentId].policyId = policyId;\n\t\tuploadObjectIdToData[currentId].capsule = capsule;\n\t\tuploadObjectIdToData[currentId].signedPublicKey = signedPublicKey;\n\t\tuploadObjectIdToData[currentId].alicePubKey = alicePubKey;\n\n\t\t// now settle relationships\n\t\tuserAddressToUploadObjectIds[_from].push(currentId);\n\n\t\tcurrentId = currentId + 1;\n\t\treturn currentId;\n\t}\n\n\t// get existing documents\n\tfunction getDocumentIds(address _address) public constant returns(uint[]) {\n\t\treturn userAddressToUploadObjectIds[_address];\n\t}\n\n\t// get document data from document id\n\tfunction getDocument(uint id) public constant returns(string, string, string, string, string, string, string) {\n\t\t\treturn (uploadObjectIdToData[id].fileHash, uploadObjectIdToData[id].alias1, uploadObjectIdToData[id].alias2, \n\t\t\t\tuploadObjectIdToData[id].policyId, uploadObjectIdToData[id].capsule, uploadObjectIdToData[id].signedPublicKey, uploadObjectIdToData[id].alicePubKey);\n\t}\n\t\n\tfunction setLastSeen(address _address, string value) {\n\t\tuserLastSeenMap[_address] = value;\n\t}\n\n\tfunction getLastSeen(address _address) public constant returns(string) {\n\t\treturn userLastSeenMap[_address]; \t\n\t}\n\n\t// get document data from document id\n\tfunction getCustomerAddressByPolicyId(string policyId) public constant returns(address) {\n\t\t// traverse all items and get _from address \n\t\taddress customerAddress;\n\t\tfor (uint index = 1; index <= currentId; index++) {\n\t\t\tif(keccak256(uploadObjectIdToData[index].policyId) == keccak256(policyId)) {\n\t\t\t\tcustomerAddress = uploadObjectIdToData[index].customerAddress;\n\t\t\t}\n\t\t}\n\n\t\treturn customerAddress;\n\t}\n\n\tfunction getAliasesByPolicyId(string policyId) public constant returns(string, string) {\n\t\t// traverse all items and get _from address \n\t\tstring alias1;\n\t\tstring alias2;\n\t\tfor (uint index = 1; index <= currentId; index++) {\n\t\t\tif(keccak256(uploadObjectIdToData[index].policyId) == keccak256(policyId)) {\n\t\t\t\talias1 = uploadObjectIdToData[index].alias1;\n\t\t\t\talias2 = uploadObjectIdToData[index].alias2;\n\t\t\t}\n\t\t}\n\n\t\treturn (alias1, alias2);\n\t}\n\n\tfunction getCurrentId() public constant returns(uint) {\n\t\treturn currentId;\n\t}\n}",
  "sourcePath": "/home/mcd-50/Documents/data/truffle/contracts/ValidatorContract.sol",
  "compiler": {
    "name": "solc",
    "version": "0.4.24+commit.e67f0147.Emscripten.clang"
  },
  "schemaVersion": "2.0.1",
  "updatedAt": "2018-08-12T07:43:01.203Z"
}